:020000040800F2
:10000000700D00200D02000815020008F302000820
:10001000190200081B0200081D0200080000000071
:100020000000000000000000000000001F020008A7
:1000300021020008000000007B020008E11D00080A
:1000400027020008270200082702000827020008EC
:10005000270200082702000869070008B707000800
:10006000C9070008DB070008ED07000827020008A1
:1000700027020008270200082702000825070008B9
:1000800027020008270200082702000827020008AC
:10009000270200082702000827020008FF070008BF
:1000A000270200082702000827020008270200088C
:1000B000270200082702000827020008270200087C
:1000C000270200082702000827020008270200086C
:1000D000270200086D2100082702000827020008F7
:1000E0007B070008270200082702000827020008F3
:1000F000270200082702000827020008270200083C
:10010000270200082702000827020008270200082B
:10011000270200082702000827020008270200081B
:10012000270200082702000827020008270200080B
:1001300000F002F800F05AF80AA090E8000C82449F
:100140008344AAF10107DA4501D100F04FF8AFF27C
:10015000090EBAE80F0013F0010F18BFFB1A43F0A5
:100160000103184754A6000074A600000A444FF08B
:10017000000C10F8013B13F0070408BF10F8014B06
:100180001D1108BF10F8015B641E05D010F8016B4B
:10019000641E01F8016BF9D113F0080F1EBF10F8AF
:1001A000014BAD1C0C1B09D16D1E58BF01F801CBD2
:1001B000FAD505E014F8016B01F8016B6D1EF9D555
:1001C0009142D6D37047000000230024002500266A
:1001D000103A28BF78C1FBD8520728BF30C148BFAA
:1001E0000B6070471FB51FBD10B510BD00F05CFA65
:1001F0001146FFF7F7FF00F090FA00F07AFA03B427
:10020000FFF7F2FF03BC00F081FA000009488047C5
:1002100009480047FEE7FEE7FEE7FEE7FEE7FEE7E8
:10022000FEE7FEE7FEE7FEE704480549054A064B00
:1002300070470000751E000831010008700700209B
:10024000700D00207009002070090020EFF310806D
:1002500072B6704780F310887047334A1368012BD9
:1002600004D04FF001031360304A1060304A11602F
:1002700030484FF0805101607047EFF3108272B642
:100280002948016891B14FF00001016027480168D9
:1002900029B1EFF3098121E9F00F006801602449D9
:1002A00009680968B1E8F00F81F3098882F31088C2
:1002B0004EF0040E70471E4908601C494FF00000C4
:1002C000086019494FF0010008601B484FF47F0196
:1002D000D0F8002041EA0201016016484FF0805139
:1002E000016016480068006880F3088861B662B64D
:1002F00070471EF0040F0CBFEFF30880EFF3098086
:1003000020E9F00F40F804ED1EF0040F0CBF80F35D
:10031000088880F3098800B505F05AF95DF804EB08
:100320004EF0040E7047000004020020FC01002083
:100330000002002004ED00E020ED00E008ED00E008
:1003400040EA010310B59B070FD1042A0DD310C852
:1003500008C9121F9C42F8D020BA19BA884201D9A4
:10036000012010BD4FF0FF3010BD1AB1D30703D0EC
:10037000521C07E0002010BD10F8013B11F8014BA2
:100380001B1B07D110F8013B11F8014B1B1B01D1BE
:10039000921EF1D1184610BD40EA0103024630B565
:1003A0009B0710D14FF0013400E008C208C91D1BA3
:1003B0009D4315EAC41FF8D013F0FF0102F8011B9A
:1003C0000DD01B0AF8E711F8013B002B02F8013BA6
:1003D00005D011F8013B002B02F8013BF3D130BDF1
:1003E00010B5431C02E010F8011B71B18107FAD16E
:1003F0004FF0013202C88C1A8C4314EAC211F9D0B2
:10040000C01A0A0603D0C01E10BDC01A10BD0A04CF
:1004100001D0801E10BD0902FCD0401E10BD40EA74
:10042000010370B59B072ED14FF00136042A2AD361
:1004300008C810C99D1B9D43121F15EAC61517D089
:10044000D8B2E1B2401A50EA056110D198B2A1B217
:10045000401A50EA05410AD123F07F4024F07F4141
:10046000401A50EA052102D1180EA0EB146070BDAD
:10047000A342DBD018BA21BA884201D9012070BD4D
:100480004FF0FF3070BD0AB9002070BD10F8013B7D
:1004900011F8014B63B1A3420AD1521E08D010F8E3
:1004A000013B11F8014B1BB1A34201D1521EEDD10A
:1004B000181B70BD421E12F8013F002BFBD111F832
:1004C000013B002B02F8013BF9D17047032A40F2AF
:1004D000308010F0030C00F0158011F8013BBCF1E6
:1004E000020F624498BF11F801CB00F8013B38BFFE
:1004F00011F8013BA2F1040298BF00F801CB38BF0C
:1005000000F8013B11F0030300F02580083AC0F029
:10051000088051F8043B083A51F804CBA0E80810D1
:10052000F5E7121D5CBF51F8043B40F8043BAFF304
:100530000080D20724BF11F8013B11F801CB48BF5E
:1005400011F8012B24BF00F8013B00F801CB48BF94
:1005500000F8012B704710B5203AC0F00B80B1E8CD
:100560001850203AA0E81850B1E81850A0E81850E8
:10057000BFF4F5AF5FEA027C24BFB1E81850A0E8F1
:10058000185044BF18C918C0BDE810405FEA827C0B
:1005900024BF51F8043B40F8043B08BF7047D20722
:1005A00028BF31F8023B48BF11F8012B28BF20F8C3
:1005B000023B48BF00F8012B70474FF000020429AE
:1005C000C0F0128010F0030C00F01B80CCF1040C82
:1005D000BCF1020F18BF00F8012BA8BF20F8022BB6
:1005E000A1EB0C0100F00DB85FEAC17C24BF00F85C
:1005F000012B00F8012B48BF00F8012B70474FF08A
:10060000000200B5134694469646203922BFA0E862
:100610000C50A0E80C50B1F12001BFF4F7AF09076E
:1006200028BFA0E80C5048BF0CC05DF804EB89005F
:1006300028BF40F8042B08BF704748BF20F8022BA2
:1006400011F0804F18BF00F8012B704710B5044619
:1006500010F0030F08BF11F0030F40F015804FF0AA
:10066000013E121FC0F20E8051F8043BA3EB0E0CAA
:100670002CEA030C1CEACE1C08BF40F8043BF0D067
:10068000A1F1040102F10402521E08DB11F8013B42
:10069000002B00F8013BF7D11146FFF78EFF2046F3
:1006A00010BD704770477047754600F02BF8AE4696
:1006B00005006946534620F00700854618B020B56E
:1006C000FFF7B2FDBDE820404FF000064FF00007F5
:1006D0004FF000084FF0000B21F00701AC46ACE8EA
:1006E000C009ACE8C009ACE8C009ACE8C0098D4657
:1006F000704710B50446AFF300802046BDE81040B7
:10070000FFF77DBD00487047100700200149182001
:10071000ABBEFEE726000200704710B507F008FEEA
:10072000002010BD10B505F0B9FA034800F0C0F87C
:1007300005F0D6FA10BD0000A805002030B590F8ED
:1007400040500124AC40C56B6C6004686360446831
:10075000102C04D10468A2600468E16003E004681E
:10076000A1600468E26030BD10B505F097FA012081
:1007700000F0CCFB05F0B4FA10BD10B505F08EFA10
:100780004FF4806000F0C2FB4FF4006000F0BEFB4D
:100790004FF4805000F0BAFB4FF4005000F0B6FB6D
:1007A0004FF4804000F0B2FB4FF4004000F0AEFB8D
:1007B00005F096FA10BD10B505F070FA022000F0B1
:1007C000A5FB05F08DFA10BD10B505F067FA042001
:1007D00000F09CFB05F084FA10BD10B505F05EFA40
:1007E000082000F093FB05F07BFA10BD10B505F072
:1007F00055FA102000F08AFB05F072FA10BD10B512
:1008000005F04CFA202000F081FB402000F07EFB38
:10081000802000F07BFB4FF4807000F077FB4FF4FA
:10082000007000F073FB05F05BFA10BD014609B9DA
:10083000012070470868006820F001000A68106015
:1008400000200A6810600A6850600A6890600A68B0
:10085000D060154A086890420BD2144A0868801A82
:100860001422B0FBF2F08000086410480838C86316
:100870000AE00D4A0868801A1422B0FBF2F08000EA
:10088000086409480838C86391F840200120904066
:10089000CA6B50600020886381F8210000BF81F896
:1008A000200000BF00BFC4E7080402400800024067
:1008B00070B50446E06B05682068066894F840103F
:1008C000042088402840002875D006F00400002845
:1008D000FAD02068006800F0200028B9206800687D
:1008E00020F0040021680860D5492068884254D966
:1008F000D34978392068884201D1042049E0D049A1
:1009000064392068884201D1402042E0CC49503906
:100910002068884201D100153BE0C9493C39206874
:10092000884202D14FF4804033E0C549283920681D
:10093000884202D14FF480202BE0C149143920684D
:10094000884202D14FF4800023E0BD4920688842EC
:1009500001D1C0041DE0BB492068884201D10420B8
:1009600017E0B84914312068884201D1402010E0D6
:10097000B44928312068884201D1001509E0B14905
:100980003C312068884202D14FF4804001E04FF4AE
:100990008020AC49091F086054E0A94978392068D3
:1009A000884201D104204AE0A54964392068884280
:1009B00002D1402043E04CE0A149503920688842F0
:1009C00001D100153BE09E493C392068884202D1A4
:1009D0004FF4804033E09A4928392068884202D198
:1009E0004FF480202BE0964914392068884202D1C8
:1009F0004FF4800023E092492068884201D1C0046E
:100A00001DE090492068884201D1042017E08D49FB
:100A100014312068884201D1402010E089492831F2
:100A20002068884201D1001509E086493C312068E0
:100A3000884202D14FF4804001E04FF48020804989
:100A400080394860E06A002802D02046E16A884781
:100A5000F4E094F84010022088402840002871D02B
:100A600006F002000028FAD02068006800F020009C
:100A700040B92068006820F00A0021680860012061
:100A800084F821006E492068884254D96C4978392D
:100A90002068884201D1022049E069496439206810
:100AA000884201D1202042E06549503920688842BF
:100AB00001D140153BE062493C392068884202D1AF
:100AC0004FF4005033E05E4928392068884202D153
:100AD0004FF400302BE05A4914392068884202D183
:100AE0004FF4001023E056492068884201D1800469
:100AF0001DE054492068884201D1022017E0514985
:100B000014312068884201D1202010E04D4928315D
:100B10002068884201D1401509E04A493C312068EB
:100B2000884202D14FF4005001E04FF400304549B3
:100B3000091F086054E0424978392068884202D190
:100B400002204AE057E03E4964392068884201D1DA
:100B5000202042E03A4950392068884201D14015AE
:100B60003BE037493C392068884202D14FF40050BD
:100B700033E0334928392068884202D14FF40030ED
:100B80002BE02F4914392068884202D14FF400101D
:100B900023E02B492068884201D180041DE02949C7
:100BA0002068884201D1022017E0264914312068CC
:100BB000884201D1202010E0224928312068884253
:100BC00001D1401509E01F493C312068884202D11B
:100BD0004FF4005001E04FF400301949803948606B
:100BE00000BF002084F8200000BFA06A30B3204678
:100BF000A16A884722E094F84010082088402840E5
:100C0000E0B106F00800C8B12068006820F00E00CE
:100C10002168086094F8401001208840E16B48602A
:100C20000120A06384F8210000BF002084F8200088
:100C300000BF206B10B12046216B884770BD0000BB
:100C400080000240080402400146002209B9012048
:100C50007047204B086898420BD21F4B0868C01A97
:100C60001423B0FBF3F0800008641B480838C86305
:100C70000AE0184B0868C01A1423B0FBF3F0800098
:100C8000086414480838C863022081F82100086805
:100C9000026843F6F0708243D1E901031843CB6840
:100CA00018430B6918434B6918438B691843CB6988
:100CB000184302430868026000208862C862086323
:100CC00048638863012081F82100002081F820001A
:100CD00000BFBDE708040240080002402DE9F041D2
:100CE00004460D4616461F464FF0000800BF94F814
:100CF0002000012802D10220BDE8F081012084F803
:100D0000200000BF94F8210001282CD1022084F893
:100D100021000020A0632068006820F00100216805
:100D200008603B46324629462046FFF707FDE06A49
:100D300030B12068006840F00E00216808600BE0C8
:100D40002068006820F004002168086020680068BE
:100D500040F00A00216808602068006840F0010047
:100D60002168086006E000BF002084F8200000BF72
:100D70004FF002084046BFE72DE9F04102460B461E
:100D800000200021002400268BE00127874007EA8D
:100D9000030100297ED0FF2901D8174600E0171D66
:100DA0003D46FF2901D8870002E0A0F10807BF00F7
:100DB0003E462F684FF00F0C0CFA06FC27EA0C0792
:100DC0004FF0040C0CFA06FC47EA0C072F60D768BA
:100DD0008F43D760364F4FEA900C57F82C40870767
:100DE0004FEA177C0F2707FA0CF73C40314FBA4205
:100DF00001D1002719E0304FBA4201D1012714E098
:100E00002E4FBA4201D102270FE02D4FBA4201D135
:100E100003270AE02B4FBA4201D1042705E02A4FED
:100E2000BA4201D1052700E006274FEA807C4FEA4D
:100E30001C7C07FA0CF7A74232D187074FEA177CD0
:100E40000F2707FA0CF41A4F4FEA900C57F82C7042
:100E5000A743DFF85CC04FEA90084CF828701B4F9E
:100E60003F688F43DFF864C0CCF800700CF10407D2
:100E70003F688F430CF1040CCCF800700CF10407B0
:100E80003F688F430CF1040CCCF800700CF10407A0
:100E90003F6800E004E08F430CF1040CCCF80070D4
:100EA000401C23FA00F7002F7FF46FAFBDE8F081FC
:100EB0000800014000080140000C01400010014002
:100EC0000014014000180140001C014000040140D2
:100ED00070B50546284602F005FA044604EB4400C6
:100EE000094901EB8000406858B104EB44020B460D
:100EF00003EB8202906804EB440203EB8202516828
:100F0000884700BF70BD00001C01002010B50446DA
:100F100004480068204020B1024804602046FFF7E2
:100F2000D7FF10BD140401402DE9F8470246002404
:100F3000002000258446002700237BE14FF00108B4
:100F400008FA03F4D1F8008008EA0400A0427DD139
:100F5000DFF8ECA2D1F80480A8EB0A09D0453AD01A
:100F600014DCB8F1030F50D009DCB8F1000F31D018
:100F7000B8F1010F1CD0B8F1020F49D120E0B8F14F
:100F8000110F18D0B8F1120F42D11EE0B9F5881F29
:100F900025D006DCB9F5803F20D0B9F5801F37D1C8
:100FA0001AE0B9F5001F18D0B9F5041F30D117E0C9
:100FB000D1F80CC02DE0D1F80C8008F1040C28E029
:100FC000D1F80C8008F1080C23E0D1F80C8008F16E
:100FD0000C0C1EE000BF00BF00BF00BF00BF00BF81
:100FE000D1F80880B8F1000F02D14FF0040C0BE0EB
:100FF000D1F80880B8F1010F03D14FF0080C14614B
:1010000002E04FF0080C546103E04FF0000C00E0E8
:1010100000BF00BFFF2801D8904601E002F104089C
:101020004646FF2802D84FEA830803E0A3F10808E8
:101030004FEA88084746D6F800804FF00F0909FAB2
:1010400007F928EA09080CFA07F900E07AE048EA0B
:101050000908C6F80080D1F8048008F08058B8F17B
:10106000805F6FD100BFDFF8DC81D8F8188048F0CE
:101070000108DFF8D091C9F81880C846D8F8188060
:1010800008F00108CDF8008000BF00BF4FEAB93872
:101090004FEA930958F829504FEA83784FEA1879B4
:1010A0004FF00F0808FA09F825EA0805DFF89881DB
:1010B000424502D14FF0000824E0DFF8908142451C
:1010C00002D14FF001081DE0DFF88481424502D1D2
:1010D0004FF0020816E0DFF87C81424502D14FF064
:1010E00003080FE0DFF87081424502D14FF0040899
:1010F00008E0DFF86881424502D14FF0050801E0C1
:101100004FF006084FEA83794FEA197908FA09F88F
:1011100048EA0505DFF848814FEA930948F8295065
:10112000D1F8048008F48038B8F5803F0BD1DFF89F
:101130003481D8F8008048EA0008DFF82891C9F81F
:1011400000800AE075E0DFF81C81D8F8008028EA0A
:101150000008DFF81091C9F80080D1F8048008F485
:101160000038B8F5003F0ED1DFF8F88008F1040828
:10117000D8F8008048EA0008DFF8E89009F104098F
:10118000C9F800800DE0DFF8DC8008F10408D8F829
:10119000008028EA0008DFF8CC9009F10409C9F8BA
:1011A0000080D1F8048008F48018B8F5801F0ED1B3
:1011B000DFF8B08008F10808D8F8008048EA000895
:1011C000DFF8A09009F10809C9F800800DE0DFF808
:1011D000948008F10808D8F8008028EA0008DFF8B1
:1011E000849009F10809C9F80080D1F8048008F456
:1011F0000018B8F5001F0ED1DFF8688008F10C0860
:10120000D8F8008048EA0008DFF8589009F10C0986
:10121000C9F800800DE0DFF84C8008F10C08D8F820
:10122000008028EA0008DFF83C9009F10C09C9F8B1
:1012300000805B1C102BFFF481AEBDE8F887000036
:10124000000011100010024000080140000C014095
:10125000001001400014014000180140001C014032
:101260000800014000040140024693680B400BB1A6
:10127000012000E0002070470AB1016101E00B0489
:101280000361704710B506F00BFC4FF47A714843C8
:10129000B0FBF1F010BD0000034800680349097875
:1012A00008440149086070472802002030020020ED
:1012B00010B50848006840F0100006490860032097
:1012C00000F092F8002000F007F800F009F8002084
:1012D00010BD0000002002400146002070470000C1
:1012E00008B500BF1148806940F001000F498861CE
:1012F0000846806900F00100009000BF00BF00BFF9
:101300000846C06940F08050C8610846C06900F0D6
:101310008050009000BF00BF00BF0549486820F022
:10132000E06040F08060486000BF08BD00100240EF
:101330000000014000BF00F01F0201219140034A5C
:10134000430942F8231000BF7047000080E100E02D
:1013500000BF00F01F02012191404209920002F1FA
:10136000E022C2F8001100BF70472DE9F05F80460F
:101370000D461646002700F003FD074639462A466B
:10138000334601F00700C0F1070ABAF1040F02D991
:101390004FF0040A01E0C0F1070AD14600F1040A47
:1013A000BAF1070F02D24FF0000A01E0A0F1030AE0
:1013B000D4464FF0010A0AFA09FAAAF1010A0AEA28
:1013C000020A0AFA0CFA4FF0010B0BFA0CFBABF114
:1013D000010B0BEA030B4AEA0B042146404600F0DE
:1013E000D7FCBDE8F09F000000BF00F00702064BED
:1013F00019684FF6FF031940044B0B4343EA0221DF
:10140000014B196000BF70470CED00E00000FA05C9
:1014100070B504460D4600266248006800F00700DB
:10142000A8420ED25F48006820F0070028435D49BB
:1014300008600846006800F00700A84201D00120BB
:1014400070BD207800F00200022807D1564840689D
:1014500020F0F000A168084353494860207800F06C
:10146000010000285DD06068012806D14E48006860
:1014700000F4003090B90120E2E76068022806D14C
:101480004948006800F0007040B90120D8E746489C
:10149000006800F0020008B90120D1E74248406826
:1014A00020F00300616808433F494860FFF7EAFE07
:1014B00006466068012810D108E0FFF7E3FE801BB4
:1014C00041F28831884201D90320B9E736484068A3
:1014D00000F00C000428F0D123E06068022810D14D
:1014E00008E0FFF7CFFE801B41F28831884201D926
:1014F0000320A5E72C48406800F00C000828F0D134
:101500000FE008E0FFF7BEFE801B41F28831884201
:1015100001D9032094E72448406800F00C0000281B
:10152000F0D12048006800F00700A8420ED91D48FD
:10153000006820F0070028431A4908600846006840
:1015400000F00700A84201D0012079E7207800F0E0
:101550000400042807D11448406820F4E060E168E2
:10156000084311494860207800F00800082808D195
:101570000D48406820F46050216940EAC1000A49E2
:10158000486000F03DF808494968C1F30311074A73
:10159000515CC840064908600020FFF79DFE00200E
:1015A0004EE700000020024000100240AE9E0008FE
:1015B0002402002001480068704700002402002037
:1015C00000B5FFF7F7FF04494968C1F30221034A58
:1015D000515CC84000BD000000100240BE9E0008E3
:1015E00000B5FFF7E7FF04494968C1F3C221034A88
:1015F000515CC84000BD000000100240BE9E0008C3
:10160000F0B585B00FF26C0C9CE8E01001A8A0E8E2
:10161000E0101CA52D680095002100220023002465
:101620000020194D696801F00C05F5B1042D02D0B8
:10163000082D19D101E0154819E001ADC1F3834629
:10164000AC5D01F4803555B10F4D6D68C5F3404573
:101650001DF805200D4D6543B5FBF2F302E00C4D7E
:1016600004FB05F3184602E000BF084800BF00BFB6
:1016700005B0F0BD02030405060708090A0B0C0DAE
:101680000E0F1010010200000010024000127A003C
:1016900000093D00F8B504460025207800F001005F
:1016A000002878D0F848406800F00C0004280CD0DE
:1016B000F548406800F00C00082811D1F248406855
:1016C00000F48030B0F5803F0AD1EF48006800F4A4
:1016D000003000285FD0606800285CD10120F8BD90
:1016E00000BF6068B0F5803F06D1E748006840F46D
:1016F0008030E549086028E0606858B9E248006831
:1017000020F48030E04908600846006820F480201A
:1017100008601AE06068B0F5A02F0BD1DA480068C5
:1017200040F48020D84908600846006840F48030C2
:1017300008600AE0D448006820F48030D24908608C
:101740000846006820F48020086000BF606888B107
:10175000FFF798FD054606E0FFF794FD401B64285F
:1017600001D90320BBE7C848006800F40030002816
:10177000F2D010E0FFF786FD054606E0FFF782FD98
:10178000401B642801D90320A9E7BF48006800F482
:1017900000300028F2D1207800F00200022857D152
:1017A000B948406800F00C0050B1B748406800F0FC
:1017B0000C00082818D1B448406800F4803098B96B
:1017C000B148006800F0020020B12069012801D072
:1017D000012084E7AC48006820F0F800616940EA25
:1017E000C100A949086033E02069E8B10120A74998
:1017F0000860FFF747FD054606E0FFF743FD401B85
:10180000022801D903206AE79F48006800F002001F
:101810000028F2D09C48006820F0F800616940EA96
:10182000C1009949086013E0002098490860FFF75B
:1018300029FD054606E0FFF725FD401B022801D9DA
:1018400003204CE79048006800F002000028F2D125
:10185000207800F0080008282DD1A069B8B1012037
:101860008B490860FFF70EFD054606E0FFF70AFD0D
:10187000401B022801D9032031E78348406A00F069
:1018800002000028F2D0012000F096FA13E00020B8
:101890007F490860FFF7F6FC054606E0FFF7F2FC1B
:1018A000401B022801D9032019E77748406A00F05D
:1018B00002000028F2D1207800F00400042873D13F
:1018C00000267148C06900F0805070B900BF6E48B2
:1018D000C06940F080506C49C8610846C06900F09A
:1018E0008050009000BF00BF01266A48006800F4E5
:1018F0008070B0B96748006840F48070654908603E
:10190000FFF7C0FC054606E0FFF7BCFC401B64285F
:1019100001D90320E3E65F48006800F480700028E6
:10192000F2D000BFE068012806D15748006A40F0B5
:1019300001005549086227E0E06858B95248006A3A
:1019400020F00100504908620846006A20F00400B7
:10195000086219E0E06805280BD14B48006A40F0A6
:101960000400494908620846006A40F00100086224
:101970000AE04548006A20F0010043490862084631
:10198000006A20F00400086200BFE068A0B1FFF721
:1019900079FC054609E0FFF775FC401B41F28831F0
:1019A000884202D903209AE622E03748006A00F014
:1019B00002000028EFD012E0FFF764FC054608E0C3
:1019C000FFF760FC401B41F28831884201D90320B7
:1019D00085E62D48006A00F002000028F0D1012EB3
:1019E00005D12948C06920F080502749C86100BF4F
:1019F000E069C8B32448406800F00C00082860D0B3
:101A0000E069022848D1002020490866FFF73AFC27
:101A1000054606E0FFF736FC401B022801D90320EB
:101A20005DE61948006800F000700028F2D1206AD5
:101A3000B0F5803F07D11448406820F40030A16819
:101A4000084311494860D4E9080108430E49496830
:101A500021F4741108430C49486001200B490866C1
:101A6000FFF710FC054607E02DE0FFF70BFC401BDD
:101A7000022801D9032032E60348006800F0007014
:101A80000028F2D01FE00000001002400000424297
:101A9000800442420070004000200C490866FFF7B5
:101AA000F1FB054606E0FFF7EDFB401B022801D9DC
:101AB000032014E60648006800F000700028F2D108
:101AC00001E001200BE6002009E600000000424290
:101AD00000100240042808D14FF0E021096941F0CC
:101AE00004014FF0E022116107E04FF0E0210969A5
:101AF00021F004014FF0E0221161704770B50446F7
:101B00002546681EB0F1807F01D301200FE0681EDA
:101B10004FF0E02148610F214FF0FF3000F038F91D
:101B200000204FF0E021886107200861002070BD8F
:101B300070B504462CB940F24222034903A002F0DA
:101B40004DFD254670BD00004E9B00086875617212
:101B50007420213D204E554C4C00000010B5044629
:101B60000CB9012010BDA06900B100E000BF94F8DD
:101B7000390028B9002084F83800204600F028F801
:101B8000242084F839002068C06820F400502168BF
:101B9000C860204600F006FA2068006920F49040F2
:101BA000216808612068406920F02A0021684861A6
:101BB0002068C06840F400502168C8600020E063DD
:101BC000202084F8390084F83A000020CAE7000099
:101BD00010B586B004460020029003900490059052
:101BE0001A49206888422ED100BF1948806940F404
:101BF0008040174988610846806900F48040019060
:101C000000BF00BF00BF0846806940F00400886143
:101C10000846806900F00400019000BF00BF48152D
:101C20000290022003900320059002A90948FFF7C3
:101C30007BF94FF48060029000200390049002A989
:101C40000448FFF771F906B010BD000000380140EC
:101C5000001002400008014077B581B004461546E7
:101C600094F83A00202850D1029800B115B901200B
:101C700004B070BD00BF94F83800012801D10220E3
:101C8000F6E7012084F8380000BF0298A062A5851D
:101C90000020E063222084F83A001D48616B8862CE
:101CA0001C48616BC8621C48616B08630020616B53
:101CB000486302AE32682368191D2B46606BFFF73C
:101CC0000DF800BF00200090206800680090206898
:101CD0004068009000BF00BF00BF002084F83800BB
:101CE00000BF2068C06840F480702168C860206828
:101CF000406940F00100216848612068406940F077
:101D00004000216848610020B2E70220B0E70000EF
:101D10001D1F0008631F0008CD1E00082DE9F041BB
:101D200004462CB940F256220F4910A002F056FC8E
:101D300025462C4605F19006FEF788FA8046B06CE1
:101D4000C0F38F21882040590F1A0021882041516B
:101D50004046FEF77FFA2FB1032040EA07213046C4
:101D600003F0A4FDBDE8F081659B00086875617211
:101D70007420213D204E554C4C000000704700005F
:101D800002480068C0F30220704700000CED00E03C
:101D900010B5002807DA0A07140E054A00F00F03F1
:101DA0001B1FD45403E00A07130E024A135410BD3C
:101DB00018ED00E000E400E008B508490968C9082A
:101DC0004FF47A72B1FBF2F14143009100BF00BFC2
:101DD00000994A1E00920029F9D108BD2402002072
:101DE00010B503F05BFFFFF757FA05F05FFE03F055
:101DF00077FF10BD00B58FB0282105A8FEF7FFFBC7
:101E000014216846FEF7FBFB0120059000040690B4
:101E1000002007900120099002200C90C1030D9131
:101E20004FF4E0110E9105A8FFF734FC18B11D2105
:101E30000CA000F0A7F90F200090022001900020D4
:101E400002904FF4806003900020049002216846C5
:101E5000FFF7DEFA18B12A2102A000F093F90FB0C3
:101E600000BD0000626F6172645C626F6172642E1B
:101E7000630000001148006840F001000F4908604D
:101E8000084640680E4908400C494860084600680A
:101E90000C490840094908600846006820F4802081
:101EA00008600846406820F4FE0048604FF41F00B8
:101EB0008860C803044908607047000000100240B1
:101EC0000000FFF8FFFFF6FE08ED00E070B50646E3
:101ED0000025746A20684069C0F3C01594F8390081
:101EE000212805D125B10020E084204600F050F8DB
:101EF00020684069C0F3801594F83A00222805D183
:101F000025B10020E085204600F032F8E06B40F07B
:101F10001000E0632046FFF70BFE70BD70B505466C
:101F20006C6A2868006800F02000B0B90020E085E5
:101F30002068C06820F480702168C860206840690B
:101F400020F00100216848612068406920F04000CD
:101F500021684861202084F83A002046FFF7DEFE21
:101F600070BD70B50446656A2846FFF707FF70BD6F
:101F70000168C96821F490710268D16001684969FB
:101F800021F0010102685161202180F83A10704768
:101F90000168C96821F0C0010268D160202180F881
:101FA000391070472DE9F04104460025206800698A
:101FB00020F44050E1680843216808612169A06865
:101FC00008436169084305432068C06841F20C6119
:101FD000884328432168C8602068406920F4407025
:101FE000A1690843216848615F49206888425CD143
:101FF000FFF7F6FA00EBC00101EB00106168890001
:10200000B0FBF1F6FFF7ECFA00EBC00101EB0010BA
:1020100061688900B0FBF1F06421B0FBF1F000EBE6
:10202000C00101EB0010A6EB8000322101EB001093
:102030006421B0FBF1F000F0F006FFF7D1FA00EBFD
:10204000C00101EB001061688900B0FBF1F0642170
:10205000B0FBF1F006EB0016FFF7C2FA00EBC0018F
:1020600001EB001061688900B0FBF1F7FFF7B8FAE7
:1020700000EBC00101EB001061688900B0FBF1F0DA
:102080006421B0FBF1F000EBC00101EB0010A7EB05
:102090008000322101EB00106421B0FBF1F000F070
:1020A0000F003044216888605BE0FFF789FA00EB9D
:1020B000C00101EB001061688900B0FBF1F6FFF789
:1020C0007FFA00EBC00101EB001061688900B0FBF2
:1020D000F1F06421B0FBF1F000EBC00101EB001066
:1020E000A6EB8000322101EB00106421B0FBF1F07F
:1020F00000F0F006FFF764FA00EBC00101EB0010FE
:1021000061688900B0FBF1F06421B0FBF1F006EBEF
:102110000016FFF755FA00EBC00101EB00106168F3
:102120008900B0FBF1F7FFF74BFA00EBC00101EBC0
:10213000001061688900B0FBF1F06421B0FBF1F0A0
:1021400000EBC00101EB0010A7EB8000322101EB96
:1021500000106421B0FBF1F000F00F003044216862
:102160008860BDE8F08100000038014010B503F040
:1021700095FD034806F08CFD03F0B2FD10BD000094
:10218000F405002000BFFEE7014609B900207047B2
:10219000C8B220B1C8B20E4A105C401CF7E701F487
:1021A0007F4028B10A48C1F30722805C0930EEE77E
:1021B00001F47F0028B10648C1F30742805C11306A
:1021C000E5E7034800EB116000781930DFE7000015
:1021D0001092000803490868884201D00120704726
:1021E0000020FCE7F00000202DE9F04198B0054602
:1021F0005422194903A8FEF7AEF918A72946384614
:1022000002F03AF880463A46414616A003F0CEFD69
:10221000404602F055F81DA003F0C8FD2E6814E0FA
:10222000A6F10C04A17E207D142804DC207D03AAE5
:1022300052F8200000E0179823460822CDE900015B
:1022400041461BA003F0B2FD3668AE42E8D1002043
:1022500018B0BDE8F08100004C9E00086465766906
:1022600063650000252D2A2E7320202020202020A9
:1022700020207479706520202020202020202072CA
:10228000656620636F756E740A000000202D2D2D89
:102290002D2D2D2D2D2D2D2D2D2D2D2D2D2D2D2D6E
:1022A0002D202D2D2D2D2D2D2D2D2D2D0A00000015
:1022B000252D2A2E2A7320252D32307320252D38E6
:1022C000640A00002DE9FC4705461FA72946384649
:1022D00001F0D2FF81463A4649461DA003F066FD53
:1022E000484601F0EDFF23A003F060FD2E6825E0D5
:1022F000A6F10C0404F1140003F0DBFDA8B904F10D
:10230000140003F0DEFD8046E069234608224946BA
:10231000CDE900081FA003F049FD04F1140006F008
:10232000BDF813A003F042FD07E0E0692346082250
:10233000494600901DA003F039FD3668AE42D7D162
:102340000020BDE8FC8700006576656E7400000023
:10235000252D2A2E73202020202020736574202014
:10236000202073757370656E642074687265616493
:102370000A00000020202D2D2D2D2D2D2D2D2D2D51
:10238000202D2D2D2D2D2D2D2D2D2D2D2D2D2D0AAD
:1023900000000000252D2A2E2A73202030782530B9
:1023A000387820253033643A00000000252D2A2E8D
:1023B0002A73202030782530387820300A00000039
:1023C0002DE9FE43054624A72946384601F054FF6F
:1023D00081463A46494622A003F0E8FC484601F00F
:1023E0006FFF28A003F0E2FC2E682FE0A6F10C049A
:1023F00004F1140003F05DFDB8B904F1140003F01A
:1024000060FD8046208C618C23460822CDE90108BE
:102410000091494622A003F0C9FC04F1140006F023
:102420003DF825A003F0C2FC0FE004F1140003F016
:1024300048FD8046208C618C23460822CDE90108A6
:10244000009149461DA003F0B1FC3668AE42CDD1E3
:102450000020BDE8FE8300006D61696C626F78004A
:10246000252D2A2E7320656E7472792073697A6522
:102470002073757370656E64207468726561640A98
:1024800000000000202D2D2D2D20202D2D2D2D2064
:102490002D2D2D2D2D2D2D2D2D2D2D2D2D2D0A00BC
:1024A000252D2A2E2A73202530346420202530340F
:1024B000642025643A0000000A000000252D2A2E21
:1024C0002A7320253034642020253034642025648C
:1024D0000A0000002DE9FF41054621A7294638469C
:1024E00001F0CAFE80463A4641461FA003F05EFC5A
:1024F000404601F0E5FE26A003F058FC2E6828E0D7
:10250000A6F10C04606BA8B1D4E90931E269606BF3
:10251000CDE90023CDE9021023460822414625A03B
:1025200003F044FC04F12C0005F0B8FF20A003F0F8
:102530003DFC0DE0D4E90930E269616BCDE900238F
:10254000CDE9020123460822414621A003F02EFCDA
:102550003668AE42D4D1002004B0BDE8F08100005E
:102560006D656D706F6F6C00252D2A2E7320626C67
:102570006F636B20746F74616C2066726565207385
:10258000757370656E64207468726561640A00001A
:10259000202D2D2D2D20202D2D2D2D20202D2D2DAC
:1025A0002D202D2D2D2D2D2D2D2D2D2D2D2D2D2D68
:1025B0000A000000252D2A2E2A732025303464209D
:1025C00020253034642020253034642025643A00EE
:1025D000252D2A2E2A7320253034642020253034DE
:1025E000642020253034642025640A002DE9FC474E
:1025F000054622A72946384601F03EFE81463A4666
:10260000494621A003F0D2FB484601F059FE25A01F
:1026100003F0CCFB2E682BE0A6F10C0404F11400AF
:1026200003F047FCA8B904F1140003F04AFC80460B
:10263000A08C234608224946CDE900081FA003F0DC
:10264000B5FB04F1140005F029FF21A003F0AEFB57
:102650000DE004F1140003F034FC8046A08C234606
:1026600008224946CDE900081AA003F09FFB36680E
:10267000AE42D1D10020BDE8FC8700006D736771C8
:102680007565756500000000252D2A2E7320656E86
:102690007472792073757370656E642074687265E6
:1026A00061640A00202D2D2D2D20202D2D2D2D2D66
:1026B0002D2D2D2D2D2D2D2D2D0A0000252D2A2ED1
:1026C0002A732025303464202025643A000000005D
:1026D0000A000000252D2A2E2A732025303464207C
:1026E0002025640A000000002DE9FF47054616A7D3
:1026F0002946384601F0C0FD81463A46494614A0B5
:1027000003F054FB484601F0DBFD1AA003F04EFB3A
:102710002E6813E0A6F10C0404F1140003F0D1FBC1
:102720008046E07F0822216A2346CDE90208CDE9F0
:102730000021494617A003F039FB3668AE42E9D1C3
:10274000002004B0BDE8F0876D7574657800000066
:10275000252D2A2E732020206F776E657220206829
:102760006F6C642073757370656E64207468726535
:1027700061640A00202D2D2D2D2D2D2D2D202D2D88
:102780002D2D202D2D2D2D2D2D2D2D2D2D2D2D2D86
:102790002D0A0000252D2A2E2A7320252D382E2AB9
:1027A0007320253034642025640A00002DE9FC479D
:1027B000054622A72946384601F05EFD81463A4685
:1027C000494621A003F0F2FA484601F079FD25A020
:1027D00003F0ECFA2E682BE0A6F10C0404F11400CF
:1027E00003F067FBA8B904F1140003F06AFB80460C
:1027F000A08B234608224946CDE900081FA003F01C
:10280000D5FA04F1140005F049FE15A003F0CEFA44
:102810000DE004F1140003F054FB8046A08B234626
:1028200008224946CDE9000818A003F0BFFA36682F
:10283000AE42D1D10020BDE8FC87000073656D6118
:1028400070686F7265000000252D2A2E7320762097
:10285000202073757370656E64207468726561649E
:102860000A000000202D2D2D202D2D2D2D2D2D2D5C
:102870002D2D2D2D2D2D2D0A00000000252D2A2E69
:102880002A7320253033642025643A00252D2A2E12
:102890002A7320253033642025640A002DE9FC5F6B
:1028A00005460FF2BC092946484601F0E5FC83467F
:1028B0004A4659462C4803F079FA584601F000FD83
:1028C0002AA003F073FAD5F8008043E0A8F10C04C5
:1028D00094F83500234608225946009033A003F0AF
:1028E00065FA94F8340000F00F06012E03D132A0EF
:1028F00003F05CFA0FE0022E03D132A003F056FA87
:1029000009E01EB932A003F051FA04E0042E02D10E
:1029100032A003F04BFAA76A00E07F1C3878232826
:10292000FBD0D4E90A100844C01B64214843E16A83
:10293000B0FBF1FA216BA06CCDE90001D4E90A30BB
:102940001844E369C11A534627A0E26A03F02EFA3D
:10295000D8F80080A845B9D10020BDE8FC9F000050
:1029600074687265616400004CA00008202D2D2D54
:1029700020202D2D2D2D2D2D2D202D2D2D2D2D2DAE
:102980002D2D2D2D202D2D2D2D2D2D2D2D2D2D2091
:10299000202D2D2D2D2D2D20202D2D2D2D2D2D2D8E
:1029A0002D2D2D202D2D2D0A00000000252D2A2E45
:1029B0002A73202533642000207265616479202009
:1029C000000000002073757370656E6400000000E5
:1029D00020696E69742020200000000020636C6F65
:1029E00073652020000000002030782530387820E2
:1029F0003078253038782020202025303264252575
:102A000020202030782530387820253033640A00A3
:102A10002DE9FC4705461BA72946384601F02CFC4A
:102A200080463A46414619A003F0C0F9404601F0FD
:102A300047FC20A003F0BAF92E6817E0A6F10C04B9
:102A4000D4E9090123460822CDE90001414622A02C
:102A500003F0ACF9607A00F0010018B124A003F093
:102A6000A5F902E025A003F0A1F93668AE42E5D150
:102A700005F016F88146494624A003F097F9002096
:102A8000BDE8FC8774696D6572000000252D2A2E53
:102A9000732020706572696F6469632020207469F7
:102AA0006D656F757420202020202020666C616782
:102AB0000A000000202D2D2D2D2D2D2D2D2D2D200A
:102AC0002D2D2D2D2D2D2D2D2D2D202D2D2D2D2D43
:102AD0002D2D2D2D2D2D0A00252D2A2E2A73203047
:102AE000782530387820307825303878200000007C
:102AF0006163746976617465640A0000646561638A
:102B0000746976617465640A00000000637572720E
:102B1000656E74207469636B3A3078253038780AB2
:102B2000000000002DE9F0438BB0054689461746AA
:102B300000242DB940F217121C491DA001F04EFDD2
:102B40002FB94FF48C7219491AA001F047FD00E02B
:102B5000641C285D202804D0285D092801D04C453C
:102B6000F6D324B94FF0FF300BB0BDE8F083214617
:102B7000284601F099FA064616B94FF0FF30F3E700
:102B8000282101A8FDF73BFD01AA4946284601F08E
:102B9000FBFA8046B8F1000F02D14FF0FF30E3E7B7
:102BA00001A94046B04738600020DDE7A09E00083C
:102BB000636D640072657470000000002DE9F041DF
:102BC0000546884616462F4627B93722084909A0E8
:102BD00001F004FD34461CB94FF0FF30BDE8F08130
:102BE00062882188386C0368284698470020F5E7FA
:102BF000AD9B000870696E20213D2052545F4E55F8
:102C00004C4C00002DE9F0470546894616461F4604
:102C1000A846B8F1000F04D118220A490AA001F011
:102C2000DDFC34460CB1042F02D00020BDE8F08753
:102C30002188D8F84000826828469047608038464E
:102C4000F4E70000989B000870696E20213D205237
:102C5000545F4E554C4C00002DE9F047054689461F
:102C600016461F46A846B8F1000F04D127220A498C
:102C70000AA001F0B3FC34460CB1042F02D00020AE
:102C8000BDE8F08762882188D8F84000436828466C
:102C900098473846F4E70000A29B000870696E2050
:102CA000213D2052545F4E554C4C000070B50446F7
:102CB00024B94B22144915A001F090FCA06A0078B9
:102CC000232809D1A16AE069884205D9D4E90A011B
:102CD0000844E16988420CD2214611A003F066F84D
:102CE00001F0A6F8FDF7B2FA054600BF002DFDD1B0
:102CF00008E0A06A2030E169814203D821460FA094
:102D000003F054F870BD0000EE930008746872651B
:102D1000616420213D2052545F4E554C4C00000010
:102D20007468726561643A257320737461636B2003
:102D30006F766572666C6F770A0000007761726E5D
:102D4000696E673A20257320737461636B20697321
:102D500020636C6F736520746F2074686520626FE8
:102D600074746F6D206F6620737461636B2061648F
:102D700064726573732E0A002DE9FC5F04468B466E
:102D800016461F46DDE90C9ADDE90E5804F11400E1
:102D90004060006000BF26626762C4F82890C4F8F3
:102DA0002CA02321D4E90A0203F065FAD4E90A3CF5
:102DB00063441A1F174BD4E9080102F0A5FEE06135
:102DC000202D04DB9622144914A001F007FC3034B6
:102DD000A57165710020A060C4F81480C4F8188043
:102DE00020602071A064E064303C00902346144AC7
:102DF0002146019004F14C0004F090FF00BF1148FF
:102E0000006818B120460F490968884700BF0020B4
:102E1000BDE8FC9F917400083C9400087072696FD3
:102E200072697479203C2052545F544852454144A1
:102E30005F5052494F524954595F4D41580000006C
:102E400051790008040100202DE9F04704460E46A0
:102E500017469846DDF8209084F80990607A20F0B3
:102E600001006072E66127620020A062C4F824803D
:102E7000002506E004F1140101EBC50002F0D0FFCB
:102E80006D1C012DF6DBBDE8F08710B50246002071
:102E900001460EE002F1140303EBC100D0E9004348
:102EA0006360D0E9003423604060006000BF481CCC
:102EB00001460129EEDB10BD2DE9F04704460F461F
:102EC000904604B12FB94FF4DF72404940A001F0A1
:102ED00085FBFDF7BBF98246A06CC0F38F2000286C
:102EE0002DD10026E56C2DB94FF4E472374943A08B
:102EF00001F074FB2868012813D001202860206CA1
:102F0000006928B940F2CD12304941A001F066FBBA
:102F1000206C012342463946D0F810C02046E047D5
:102F200001E06FF006065046FDF794F916B94046E9
:102F3000BDE8F087304604F0E5F80020F8E7E56CDE
:102F40000026204602F036F981462DB940F2DD1206
:102F50001E4939A001F042FBC84501DA464600E0AF
:102F60004E46E8888119A06CC0F38F20814207D2B9
:102F7000EA88286881183246384603F01DF91CE0BB
:102F8000A06CC0F38F20EB88C21A2868C11838469D
:102F900003F012F9EB8803EB060CA36CC3F38F2349
:102FA000ACEB0302A36CC3F38F233B44B5F806C01C
:102FB000A3EB0C00296803F0FFF83146204602F02D
:102FC000FFF85046FDF746F93046B1E7AA9C0008E5
:102FD0002873657269616C20213D2052545F4E5503
:102FE0004C4C2920262620286461746120213D2034
:102FF00052545F4E554C4C290000000072785F64BB
:103000006D6120213D2052545F4E554C4C00000014
:1030100073657269616C2D3E6F70732D3E646D61D6
:103020005F7472616E736D697420213D2052545F2C
:103030004E554C4C0000000072785F6669666F2048
:10304000213D2052545F4E554C4C00002DE9F04775
:10305000044688461646256D4FF0FF3332464146FA
:10306000281D01F08DFD0746CFB9FDF7EFF8814629
:10307000286801280DD0012028604846FDF7EAF8AD
:10308000206C022332464146D0F810C02046E0476B
:1030900002E04846FDF7DEF83046BDE8F0873846E6
:1030A00004F030F80020F8E770B50546EC6C2CB958
:1030B00040F24F120F4910A001F090FAA088E18869
:1030C000884207D1A06808B9002070BDA86CC0F381
:1030D0008F20FAE7A088E188884203DDA088E18894
:1030E000401AF2E7E088A188411AA86CC0F38F204B
:1030F000401AEAE7539C000872785F6669666F20A1
:10310000213D2052545F4E554C4C00002DE9F047B4
:1031100006460F4615462EB94FF483721E491FA06E
:1031200001F05CFAA846F46C2CB94FF485721A4988
:103130001FA001F053FA28E0FDF788F88246E088E6
:10314000A188884205D1A06818B95046FDF782F8D9
:103150001DE0E188206810F80190E088401CE080C4
:10316000E188B06CC0F38F20814201DB0020E08059
:10317000A068012801D10020A0605046FDF76AF840
:1031800087F800907F1C6D1E00BF002DD4D100BFBA
:10319000A8EB0500BDE8F087359C000873657269EF
:1031A000616C20213D2052545F4E554C4C00000074
:1031B00072785F6669666F20213D2052545F4E55DC
:1031C0004C4C00002DE9F04105460E4614462DB941
:1031D0004FF49B721149124801F000FAA0462F6D7E
:1031E0002FB94FF49D720D490EA001F0F7F90FE0D1
:1031F0003178286C826828469047401C28B94FF0E7
:10320000FF31384601F08EFA02E0761C641E00BFE2
:10321000002CEDD1A8EB0400BDE8F081449C00082F
:103220007C320008747820213D2052545F4E554C6A
:103230004C0000002DE9F04106460F46144626B921
:10324000D3220D490DA001F0C9F9A0460DE0306C64
:10325000C168304688470546681C00B907E03D70E4
:103260007F1C641E0A2D00D101E0002CEFD100BFAD
:10327000A8EB0400BDE8F081159C00087365726935
:10328000616C20213D2052545F4E554C4C00000093
:103290002DE9F04104460E46154624B9E7220F49B0
:1032A0000F4801F09BF92F4612E030780A2808D128
:1032B000207E00F0400020B1206C0D218268204665
:1032C00090473178206C826820469047761C6D1EAE
:1032D000002DEAD1781BBDE8F0810000259C000894
:1032E0007C3200080246002106E00120884090421E
:1032F00001D108467047491C2029F6DB4FF0FF300A
:10330000F8E7000010B520A002F050FD2148017838
:1033100021A002F04BFD1F48007800F0010010B121
:1033200023A002F043FD1B48007800F0020010B11A
:1033300022A002F03BFD1748007800F0040010B115
:1033400021A002F033FD1348007800F0080010B10E
:1033500021A002F02BFD0F48007800F0100010B102
:1033600020A002F023FD0B48007800F0800030B16F
:1033700008480F3001681DA002F018FD02E01FA0F0
:1033800002F014FD10BD0000627573206661756C5B
:10339000743A0A0029ED00E05343425F434653521A
:1033A0005F424653523A30782530325820000000B0
:1033B00049425553455252200000000050524543A7
:1033C0004953455252200000494D505245434953FC
:1033D0004552522000000000554E53544B45525266
:1033E0002000000053544B45525220005343422DBD
:1033F0003E424641523A253038580A000A00000041
:1034000070B504460D4600F0B3FC002070BD70B5E9
:1034100004460D4600F00CFD002070BD0246002061
:103420007047000010B51448006890F82100C0F300
:10343000400020B9002011490870084610BD10480E
:10344000006838B180220E4801680C48FDF7FEF88C
:103450000A48F3E700F096FE20B10AA10748FCF7FE
:103460009BFF03E009A10548FCF796FF09A103486B
:10347000FDF720F80148E1E70C0200208C0600204F
:10348000100200206D7368200000000066696E73F2
:10349000682000003E00000008B5002000900E48A3
:1034A000006820B990220D490DA001F097F805E0C1
:1034B0004FF0FF310848006803F058FA06490968E0
:1034C00001236A46D1F80802991E01F065FD012822
:1034D000EED19DF8000008BD0C020020EF9D000811
:1034E0007368656C6C20213D2052545F4E554C4CE6
:1034F0000000000070B504460D460748006820B97A
:103500009B22064906A001F069F80348006803F011
:10351000E5F9002070BD00000C020020FD9D0008B0
:103520007368656C6C20213D2052545F4E554C4CA5
:103530000000000070B5054600242548006820B949
:10354000AE22244924A001F049F8284601F01EFCCF
:10355000044624B9294625A002F028FC70BD1C4869
:103560000068D0F80802A04200D1F7E740F243110A
:10357000204601F049FC48BB15480068D0F8080215
:1035800060B113490968D1F8080201F0A9FB10499C
:103590000968D1F80802002101F072FD50210C48A1
:1035A000006800F5DB70FDF708F80020084909689D
:1035B00081F806020649096881F807020448006894
:1035C000C0F808421149204601F05AFD00BFC5E786
:1035D0000C0200200A9E00087368656C6C20213D77
:1035E0002052545F4E554C4C0000000066696E73CB
:1035F000683A2063616E206E6F742066696E642085
:103600006465766963653A2025730A00F53400081D
:1036100010B504460948006820B98522084909A068
:1036200000F0DCFF0548006890F8210064F34100D9
:103630000249096881F8210010BD00000C02002039
:10364000D99D00087368656C6C20213D2052545F41
:103650004E554C4C00000000024A1060024A1160B6
:103660007047000014020020180200207CB50025DD
:1036700017491848FFF7F0FF4FF40371012000F0DD
:10368000E7FF154908600846006820B913A002F05A
:103690008DFB681E7CBD0A2014214FF4805300224C
:1036A000CDE90010134914A003F0C9FE044600231D
:1036B0001A4613A10848006803F0DAF80120FFF762
:1036C000A7FF1CB115B9204604F08EF80020E1E7F1
:1036D000B8A7000844A600080C0200206E6F206DF9
:1036E000656D6F727920666F72207368656C6C0A05
:1036F0000000000009370008747368656C6C0000F6
:103700007368727800000000FE48006890F821009D
:1037100020F00100401CFB49096881F82100F948AC
:103720000068D0F8080238B901F0B8F8054615B1BC
:103730002846FFF7FFFE00BFFFF774FE054602F0C4
:1037400035FB5EE2FFF7A8FE0446002C00DA58E2E3
:103750001B2C05D10120EB49096881F8200050E2BB
:10376000E848006890F8200001280DD15B2C05D1B5
:103770000220E449096881F8200042E20020E14982
:10378000096881F82000BEE0DE48006890F820005B
:103790000228F8D10020DB49096881F82000412C7B
:1037A00036D1D8480068408C002807DDD54800682D
:1037B000408C401ED3490968488404E00020D14968
:1037C000096848841DE2CF480068408C00EB800205
:1037D000CC480068263000EB02115022C94800682E
:1037E00000F5DB70FCF772FEC648006800F5DB7080
:1037F000FCF7F6FDC0B2C349096881F80602C14969
:10380000096881F80702BF48006804F0C3FDF8E1C9
:10381000422C42D1BB480068418CBA480068808C79
:10382000401E814207DAB7480068408C401CB54909
:10383000096848840CE0B3480068808C38B1B1480E
:103840000068808C401EAF490968488400E0D8E1D8
:10385000AC480068408C00EB8002AA480068263023
:1038600000EB02115022A748006800F5DB70FCF75E
:103870002DFEA448006800F5DB70FCF7B1FDC0B276
:10388000A049096881F806029E49096881F8070283
:103890009C48006804F07EFDB3E1442C11D19948A6
:1038A000006890F8070258B197A002F07FFA954897
:1038B000006890F80702401E9249096881F80702E3
:1038C0009FE1432C1FD18F48006890F807028D4973
:1038D000096891F80612884214DA8A48006890F85C
:1038E00007228848006800F5DB70815C87A002F041
:1038F0005DFA8448006890F80702401C8149096815
:1039000081F807027DE10CB1FF2C00D179E1092C8F
:1039100021D1002503E07CA002F048FA6D1C794813
:10392000006890F80702A842F5DC7648006800F5C8
:10393000DB7004F013FD7348006800F5DB70FCF7E2
:103940004FFDC0B26F49096881F806026D490968E8
:1039500081F8070255E17F2C01D0082C74D1694809
:10396000006890F8070200B94BE16648006890F8DB
:103970000602401E6349096881F806026148006832
:1039800090F80702401E5F49096881F807025D4808
:10399000006890F806025B49096891F807128842AE
:1039A00043DD584B1B6893F80632564E366896F83E
:1039B00007629A1B534B1B6893F807325B1C514EEE
:1039C000366806F5DB7699194E4B1B6893F807624B
:1039D0004C4B1B6803F5DB73F01802F02BFC002145
:1039E0004848006890F806224648006800F5DB70F9
:1039F00081544448006890F807224248006800F566
:103A0000DB70111842A002F0D1F93E48006890F82E
:103A1000075203E03CA002F0C9F96D1C3948006868
:103A200090F80602A842F5DA0CE03BA002F0BEF9DD
:103A300000223448006890F806123248006800F509
:103A4000DB704254DDE0FFE70D2C01D00A2C31D1B0
:103A50002C48006804F0B6FC00F094FB012813D158
:103A60002848006890F8210000F0010010B12BA058
:103A700002F09CF92348006890F80612214800687B
:103A800000F5DB7000F0DAFAFFF7CCFC054602F037
:103A90008DF950211B48006800F5DB70FCF78DFDA7
:103AA00000201849096881F806021649096881F85A
:103AB0000702A6E01348006890F80602502804DBCD
:103AC00000201049096881F806020E48006890F845
:103AD00007020C49096891F80612884259DA094B25
:103AE0001B6893F80632074E366896F807629A1BF1
:103AF000044B1B6893F80762024B1B6803F5DB73EA
:103B0000F1180DE00C020020080000002563000001
:103B10000825732020080000082008000A00000083
:103B2000384B1B6893F807325B1C364E366806F537
:103B3000DB76981902F07EFB3248006890F8072285
:103B40003048006800F5DB7084542E48006890F817
:103B5000210000F0010058B12A48006890F80722BF
:103B60002848006800F5DB70111827A002F01EF944
:103B70002448006890F8075204E0AFF2740002F0A5
:103B800015F96D1C1F48006890F80602A842F4DC85
:103B900014E01C48006890F806221A48006800F5F6
:103BA000DB7084541748006890F8210000F0010091
:103BB00020B12146AFF2AC0002F0F8F80024114821
:103BC000006890F80602401C0E49096881F8060258
:103BD0000C48006890F80702401C0A49096881F8FF
:103BE00007020848006890F80602502808DB002009
:103BF0000449096881F806020249096881F8070248
:103C000000BF9FE50C0200202573000001467029CB
:103C100009D201EB4102054B03EB82000268521C02
:103C200012B9002000E00020704700005495000801
:103C300010B51448006800F0020010B112A002F0A4
:103C4000B5F81048006800F0804088B10D48C01EEB
:103C5000007808B1FFF756FB0A48001F007808B14A
:103C600000F028F90748801E008808B105F0E2F846
:103C70000448006800F0004010B109A002F096F876
:103C800010BD00002CED00E06661696C6564207673
:103C90006563746F722066657463680A00000000D3
:103CA0006465627567206576656E740A00000000C1
:103CB00010B502A002F07AF8002010BD48656C6CC7
:103CC0006F2052542D546872656164210A0000000F
:103CD00010B50DA002F06AF8104804680DE0022249
:103CE0000FA12068FCF79BFB00B905E00DA0D4E90B
:103CF000001202F05BF800BF0C340E4800688442EA
:103D0000EDD3002010BD00002D2D46756E63746943
:103D10006F6E204C6973743A0A0000001402002090
:103D20005F5F0000252D313673202D2D2025730A6D
:103D3000000000001802002010B5092002F0B4FBBA
:103D40000446201DFEF750FA10BD10B5042002F005
:103D5000ABFB0446201DFEF7B5FA10BD10B50520DB
:103D600002F0A2FB0446201DFEF72AFB10BD000056
:103D700010B50848016808A002F018F80B4801685F
:103D80000BA002F013F80F4801680FA002F00EF824
:103D900010BD000030000020746F74616C206D65F0
:103DA0006D6F72793A2025640A000000340000200B
:103DB00075736564206D656D6F7279203A20256496
:103DC0000A000000380000206D6178696D756D2073
:103DD000616C6C6F6361746564206D656D6F727981
:103DE0003A2025640A00000010B5082002F05CFBB0
:103DF0000446201DFEF76EFB10BD10B5062002F034
:103E000053FB0446201DFEF7F1FB10BD10B5032047
:103E100002F04AFB0446201DFEF766FC10BD10B5FB
:103E2000022002F041FB0446201DFEF7BFFC10BD3E
:103E300010B5012002F038FB0446201DFEF72EFDD0
:103E400010BD10B50A2002F02FFB0446201DFEF71E
:103E5000DFFD10BD10B501240021152002F0CAFBC2
:103E60000021452002F0C6FB17E00121152002F0D9
:103E700007FC0121452002F003FC4FF4FA7003F027
:103E800013FC0021152002F0FBFB0021452002F06D
:103E9000F7FB4FF4FA7003F007FC201E04F1010455
:103EA000E3D110BD10B5044600F0EAFCFFF7D2FFE5
:103EB00010BD000010B51CA001F078FF1F4801786C
:103EC0001FA001F073FF1D48007800F0010010B141
:103ED00021A001F06BFF1948007800F0020010B13A
:103EE00020A001F063FF1548007800F0080010B131
:103EF0001FA001F05BFF1148007800F0100010B126
:103F00001EA001F053FF0D48007800F0800030B192
:103F10000A480C3001681CA001F048FF02E01EA016
:103F200001F044FF10BD00006D656D206D616E6194
:103F30006765206661756C743A0A000028ED00E040
:103F40005343425F434653525F4D4653523A307893
:103F500025303258200000004941434356494F4C18
:103F6000200000004441434356494F4C20000000CC
:103F70004D554E53544B4552522000004D53544B17
:103F800045525220000000005343422D3E4D4D410A
:103F9000523A253038580A000A0000002DE9F0474F
:103FA00081460026002799F8000028B9002108461C
:103FB00000F0A8F8BDE8F0871B48046827E0062257
:103FC0001AA12068FCF72BFA00B11FE0206800F16D
:103FD00006084846FCF704FA8246524641464846DF
:103FE000FCF71DFA88B926B947463846FCF7F8F9B8
:103FF00006464146384604F03BFE0546B54200DA27
:104000002E4641460BA001F0D1FE00BF0C340A48F9
:1040100000688442D3D327B132463946484603F07C
:10402000FAF800BFC6E70000140200205F5F636D6E
:10403000645F000025730A001802002038B50446AA
:104040000D4601E0641C6D1E20782028FAD02078EF
:104050000928F7D00DB9002038BD6A462946204608
:10406000FEF760FD08B90098F6E7204600E0401C26
:104070000178202902D001780029F8D100210170AF
:10408000214603A001F092FE4FF0FF30E4E700006C
:1040900025733A20636F6D6D616E64206E6F7420BE
:1040A000666F756E642E0A002DE9F04106460D46D6
:1040B00000271048046815E006220FA12068FCF7CD
:1040C000AEF900B10DE02168881D2A463146FCF7A3
:1040D000A6F928B9A81D2168085C08B9A76805E0F9
:1040E00000BF0C34064800688442E5D300BF384660
:1040F000BDE8F081140200205F5F636D645F000023
:104100001802002070B505460E460FA001F04EFEC5
:10411000144804680EE0062213A12068FCF77FF91A
:1041200000B106E0D4E90002811D11A001F03EFEBD
:1041300000BF0C34114800688442ECD310A001F099
:1041400035FE002070BD000052542D546872656128
:1041500064207368656C6C20636F6D6D616E647351
:104160003A0A0000140200205F5F636D645F000084
:10417000252D313673202D2025730A0018020020CA
:104180000A000000012070472DE9F04782460E46E4
:10419000904654460025002755E003E0002020709B
:1041A000641C6D1C2078202802D02078092801D1B9
:1041B000B542F3D30A2F12D326A001F0F7FD4FF03A
:1041C000000906E058F829102AA001F0EFFD09F1D6
:1041D0000109B945F6D326A001F0E8FD35E0B54266
:1041E00000D332E0207822281CD1641C6D1C48F8D2
:1041F00027407F1C09E020785C2804D160782228C1
:1042000001D1641C6D1C641C6D1C2078222801D017
:10421000B542F0D3B54200D317E000202070641CF3
:104220006D1C10E048F827407F1C01E0641C6D1CE9
:104230002078202804D02078092801D0B542F5D371
:10424000B54200D301E0B542A7D300BF3846BDE870
:10425000F0870000546F6F206D616E792061726786
:10426000732021205765206F6E6C79205573653A55
:104270000A000000257320002DE9F04780460E4615
:104280004FF00009404602F0A9FF044601F040F853
:10429000376809E0A7F10C09484602F09FFF054680
:1042A000A54200DD2C463F68B742F3D101F040F84B
:1042B000082C00DC04B908242046BDE8F087000083
:1042C00010B5044602E004A001F070FD201EA4F128
:1042D0000104F8D110BD00002D00000070B50446A7
:1042E00026480068844204D29422254925A000F083
:1042F00075F92C480068844204D3952220492AA0ED
:1043000000F06CF9608820B196221D4931A000F0C0
:1043100065F91A49606809684518AC4215D0688883
:1043200098B92048006885420FD02E480068A842FE
:1043300001D12C4804606868606010480068201A49
:104340000E4A69681268114488600C49A0680968BF
:104350004618A64211D0708878B922480068A04259
:1043600001D1204806606068706004480068301A17
:10437000024A616812681144886070BD2400002000
:10438000329300082872745F75696E74385F742008
:104390002A296D656D203E3D20686561705F7074EF
:1043A00072000000280000202872745F75696E7426
:1043B000385F74202A296D656D203C202872745F57
:1043C00075696E74385F74202A29686561705F654D
:1043D0006E6400006D656D2D3E75736564203D3D16
:1043E000203000002C0000202DE9F04F86B00D4653
:1043F0009C46DDE9106401960F9B04F04008B8F17B
:10440000000F02D0DFF8708101E0DFF87081CDF895
:10441000008004F01008B8F1000F01D024F001046E
:1044200004F00108B8F1000F02D04FF0300801E0AD
:104430004FF02008C246002704F00208B8F1000F30
:1044400011D0002A02DA2D2752420CE004F00408B1
:10445000B8F1000F01D02B2705E004F00808B8F1EF
:10446000000F00D02027002142B94FF0300B8846C2
:10447000491C0DF1080909F808B01DE01AE0E146F1
:10448000B9F10A0F08D14FF00A0BB2FBFBFE0BFB90
:104490001E28B2FBFBF202E002F00F08120900BF77
:1044A000DDF8009019F808B08846491C0DF108099C
:1044B00009F808B0002AE2D1B14200DD0E469B1B8C
:1044C00004F01108B8F1000F10D117B1002B00DD76
:1044D0005B1E06E0A84203D24FF0200880F800805F
:1044E000401CB3F10008A3F10103F3DC27B1A8429B
:1044F00000D207705B1E401C04F01008B8F1000FDA
:104500000AD104E0A84201D280F800A0401CB3F117
:104510000008A3F10103F5DC06E0A84203D24FF046
:10452000300880F80080401CB046761E8845F4DCD8
:1045300008E0A84205D20DF1080818F8018080F8BB
:104540000080401CB1F10008A1F1010104DDDDF89B
:104550000480B8F1000FECD106E0A84203D24FF07E
:10456000200880F80080401CB3F10008A3F101038B
:10457000F3DC06B0BDE8F08F21930008109300082B
:1045800070B504460D4601F01BF870BD1CB5142033
:104590000A214FF400630022CDE90010074908A06A
:1045A00002F04DFF044624B9C322074907A000F0DA
:1045B00015F8204603F018F91CBD0000A53E0008C0
:1045C0006D61696E00000000268F00087469642028
:1045D000213D2052545F4E554C4C0000F8B5044626
:1045E0000D461646002000900A48006858B9334628
:1045F0002A46214608A001F0D9FB00BF9DF8000023
:104600000028FBD005E0324629462046014B1B68B6
:104610009847F8BD1800002028257329206173737E
:10462000657274696F6E206661696C65642061747F
:104630002066756E6374696F6E3A25732C206C6901
:104640006E65206E756D6265723A2564200A000001
:1046500070B504460D4604FB05F001F04FFC06461C
:104660002EB104FB05F20021304601F004FE304675
:1046700070BD000070B5044624B96422104911A031
:10468000FFF7ACFF2068012800D170BDFBF7DEFD0D
:10469000064601202060201D01F0FBFB58B9606830
:1046A000A0F11405284603F009F83046FBF7D2FDC7
:1046B00002F00AF802E03046FBF7CCFD00BFE4E769
:1046C000659D0008636F6D706C6574696F6E202165
:1046D0003D2052545F4E554C4C00000070B50446CE
:1046E00024B91522084909A0FFF778FFFBF7AEFDB2
:1046F000054600202060201D4060006000BF284665
:10470000FBF7A8FD70BD00003F9D0008636F6D7052
:104710006C6574696F6E20213D2052545F4E554C7C
:104720004C0000002DE9F341054625B924222F490C
:104730002FA0FFF753FF002603F00EF80446FBF707
:1047400085FD07462868012846D0281D01F0A1FBF9
:1047500020B92D2225492CA0FFF740FF019810B960
:104760006FF001063BE000202063204603F09EF836
:10477000281D04F114014268116042684A604160DA
:10478000086000BF00BFFBF761FD804601F0A2FAA0
:1047900040B1164928A001F009FB4022134930A07E
:1047A000FFF71CFF4046FBF755FD00BF01980028AE
:1047B00009DD01AA002104F14C0003F0E9F904F13C
:1047C0004C0003F0D5FA3846FBF744FD01F07CFFBE
:1047D000266BFBF73BFD07460020286000BF3846EC
:1047E000FBF738FD3046BDE8FC810000529D000813
:1047F000636F6D706C6574696F6E20213D2052543B
:104800005F4E554C4C00000072745F6C6973745FAE
:104810006973656D707479282628636F6D706C6597
:1048200074696F6E2D3E73757370656E6465645F39
:104830006C6973742929000046756E6374696F6E24
:104840005B25735D207368616C6C206E6F742062F1
:1048500065207573656420696E204953520A000013
:104860003000000010B5044C02E020688047241D91
:1048700002488442F9D310BD34A6000838A60008C7
:1048800010B5044C02E020688047241D0248844291
:10489000F9D310BD38A6000840A6000801480068FA
:1048A000704700001400002070B505460A480668ED
:1048B000284600F06BFA044664B10748006818B156
:1048C0000548006800F00CFA4321204600F09CFAED
:1048D00001480460304670BD140000202DE9F0410D
:1048E00004460D4616461F4624B91C220E490FA049
:1048F000FFF774FE2762258066800020208160819A
:1049000004F1100001F08FFA04F1180001F08BFAA5
:10491000E80001F0F3FAE060E06818B96FF0040015
:10492000BDE8F0810020FBE7789D00087175657592
:104930006520213D2052545F4E554C4C0000000034
:104940002DE9F04104460D46164624B9F8221649D1
:1049500016A0FFF743FEFBF779FC07462089618923
:10496000884206D13846FBF775FC6FF00300BDE8BE
:10497000F0812089218890FBF1F201FB1200E168AF
:1049800051F8300028602089218890FBF1F201FB6A
:104990001200E16801EBC000406830603846FBF768
:1049A00059FC0020E3E70000B09D000871756575B3
:1049B0006520213D2052545F4E554C4C00000000B4
:1049C0002DE9FF4704460F46904624B995225249E7
:1049D00052A0FFF703FE27B996224F4954A0FFF7D4
:1049E000FDFDB8F1000F04D197224B4955A0FFF708
:1049F000F5FD002602F0B0FE0546FBF727FC8146D8
:104A00003BE0039810B96FF0010678E000BFFBF7B8
:104A10001DFC824601F05EF940B13F494DA001F016
:104A2000C5F9A7223C4955A0FFF7D8FD5046FBF732
:104A300011FC00BF00202863284602F037FF05F173
:104A4000140104F1180001F00DFA0398002809DDA3
:104A500003AA002105F14C0003F09AF805F14C007F
:104A600003F086F94846FBF7F5FB01F02DFE2E6BAF
:104A7000FBF7ECFB814606B141E020896189884261
:104A8000BFD02089218890FBF1F201FB1200E16880
:104A900051F8300038602089218890FBF1F201FB49
:104AA0001200E16801EBC0004068C8F800002089EE
:104AB000401C208160892189401A618888421DDC60
:104AC00004F1100001F0EDF958B92069A0F11405C6
:104AD000284602F0F3FD4846FBF7BCFB01F0F4FD6D
:104AE00002E04846FBF7B6FB206A18B103212046D6
:104AF000226A9047304604B0BDE8F08700BF4846C0
:104B0000FBF7A8FB2EB9206A18B101212046226AC2
:104B100090473046EFE700009E9D0008717565756F
:104B20006520213D2052545F4E554C4C0000000042
:104B3000646174615F70747220213D2052545F4E35
:104B4000554C4C0073697A6520213D2052545F4ECC
:104B5000554C4C0046756E6374696F6E5B25735DD2
:104B6000207368616C6C206E6F74206265207573B1
:104B7000656420696E204953520A0000300000002D
:104B80002DE9FF4704460F46904624B93C2243498D
:104B900043A0FFF723FD002602F0DEFD0546FBF7EC
:104BA00055FB81463BE0039810B96FF0010668E0C1
:104BB00000BFFBF74BFB824601F08CF840B1374950
:104BC0003CA001F0F3F84D22344944A0FFF706FD64
:104BD0005046FBF73FFB00BF00202863284602F049
:104BE00065FE05F1140104F1100001F03BF9039892
:104BF000002809DD03AA002105F14C0002F0C8FFDE
:104C000005F14C0003F0B4F84846FBF723FB01F034
:104C10005BFD2E6BFBF71AFB814606B131E0608924
:104C20002189401A21888842BDD06089218890FB63
:104C3000F1F201FB1200E16841F8307060892188CF
:104C400090FBF1F201FB1200E16801EBC000C0F83B
:104C500004806089401C608104F1180001F021F992
:104C600070B9A069A0F11405284602F027FD484656
:104C7000FBF7F0FA01F028FD304604B0BDE8F087FC
:104C800000BF4846FBF7E6FA2EB9206A18B10221A8
:104C90002046226A90473046EFE700008B9D0008CF
:104CA000717565756520213D2052545F4E554C4C01
:104CB0000000000046756E6374696F6E5B25735D5E
:104CC000207368616C6C206E6F7420626520757350
:104CD000656420696E204953520A000030000000CC
:104CE00070B5044600252CB940F23512134914A0C2
:104CF000FFF774FC204601F0EBFB092805D04FF4C8
:104D00009B720E4912A0FFF769FCA07E10B94FF00C
:104D1000FF3070BDA07E401EA076A07E08B10020AE
:104D2000F7E7E06A18B12046E16A884705460DB109
:104D3000A81D08B9002020832846EAE78E8F0008C6
:104D400064657620213D2052545F4E554C4C000046
:104D500072745F6F626A6563745F6765745F7479AC
:104D6000706528266465762D3E706172656E7429C3
:104D7000203D3D2052545F4F626A6563745F436C0F
:104D80006173735F44657669636500002DE9F041E6
:104D9000064602F0E1FC08B100F0BAFA092001F081
:104DA00083FB044624B97C22104911A0FFF716FCAE
:104DB000656810E0A5F10C0708223146384602F07C
:104DC00016FA38B902F0C8FC08B100F0B1FA38465A
:104DD000BDE8F0812D68201D8542EBD102F0BCFCBE
:104DE00008B100F0A5FA0020F2E700004F8F00089C
:104DF000696E666F726D6174696F6E20213D20521D
:104E0000545F4E554C4C000070B504460E460025CC
:104E100024B9F422274928A0FFF7E0FB204601F03F
:104E200057FB092804D0F522224927A0FFF7D6FB1B
:104E3000A07D00F0100088B9606A58B12046616A10
:104E40008847054635B12A4621462EA000F0AEFF20
:104E5000284670BDE08A40F01000E082A07D00F09E
:104E6000080030B1207E00F0080010B16FF006009D
:104E7000EFE7A06A28B131462046A26A904705466E
:104E800003E040F60F70304020830DB1A81D70B9CB
:104E9000208B40F008002083A07E401CA076A07EDE
:104EA00028B940F22312034924A0FFF797FB2846B4
:104EB000CFE700007F8F000864657620213D2052F7
:104EC000545F4E554C4C000072745F6F626A6563AC
:104ED000745F6765745F7479706528266465762DE4
:104EE0003E706172656E7429203D3D2052545F4FC3
:104EF000626A6563745F436C6173735F446576696E
:104F000063650000546F20696E697469616C697A29
:104F100065206465766963653A2573206661696C0E
:104F200065642E20546865206572726F7220636F0D
:104F300064652069732025640A0000006465762D8D
:104F40003E7265665F636F756E7420213D20300090
:104F500070B504460E46154612200B490875002010
:104F6000C861086248628862C862084808630848E5
:104F700048630848886308460664C56303222146DF
:104F800000F064F8002070BD48060020052C0008E1
:104F9000592C0008BD2B00082DE9F04104460D46B0
:104FA00016461F462CB940F25F12144914A0FFF7B1
:104FB00015FB204601F08CFA092805D04FF4B07299
:104FC0000E4913A0FFF70AFBA07E30B94FF0FF3067
:104FD00002F098F80020BDE8F081206B38B13B4624
:104FE000324629462046D4F830C0E047F3E76FF058
:104FF000050002F087F80020EDE700009E8F000812
:1050000064657620213D2052545F4E554C4C000083
:1050100072745F6F626A6563745F6765745F7479E9
:10502000706528266465762D3E706172656E742900
:10503000203D3D2052545F4F626A6563745F436C4C
:105040006173735F446576696365000070B50446FB
:105050000D46164614B94FF0FF3070BD2846FFF7D5
:1050600095FE10B14FF0FF30F7E72A4609212046A0
:1050700001F048FAE6820020A076208300BFECE72A
:1050800070B504460D462CB940F2C112084909A07A
:10509000FFF7A4FA204601F01BFA092805D04FF4C7
:1050A000E172034907A0FFF799FAE561002070BD9E
:1050B000CF8F000864657620213D2052545F4E5505
:1050C0004C4C000072745F6F626A6563745F676561
:1050D000745F7479706528266465762D3E70617200
:1050E000656E7429203D3D2052545F4F626A6563AE
:1050F000745F436C6173735F446576696365000038
:105100002DE9F04104460D4616461F462CB94FF4D2
:10511000C372144914A0FFF761FA204601F0D8F9D0
:10512000092805D040F287120E4913A0FFF756FA5E
:10513000A07E30B94FF0FF3001F0E4FF0020BDE861
:10514000F081606B38B13B46324629462046D4F8A0
:1051500034C0E047F3E76FF0050001F0D3FF002013
:10516000EDE70000AD8F000864657620213D2052F8
:10517000545F4E554C4C000072745F6F626A6563F9
:10518000745F6765745F7479706528266465762D31
:105190003E706172656E7429203D3D2052545F4F10
:1051A000626A6563745F436C6173735F44657669BB
:1051B0006365000010B504462046FDF775FF10BD7D
:1051C00070B506460D46F46C2CB94FF4BD72134908
:1051D00013A0FFF703FA3046FFF7ECFFA84205D211
:1051E00040F27B120D4913A0FFF7F8F9A06810B147
:1051F0000DB10020A060E0882844E080E188B06C18
:10520000C0F38F20814208DBE188B06CC0F38F20AF
:1052100091FBF0F200FB1210E08070BD709C000862
:1052200072785F6669666F20213D2052545F4E554B
:105230004C4C00006C656E203C3D2072745F646DC8
:10524000615F63616C635F7265637665645F6C6503
:105250006E2873657269616C2900000070B505469F
:105260000E46EC6C2CB94FF4C872234923A0FFF70B
:10527000B5F9E088A188884218DCA0883044A08075
:10528000A188A86CC0F38F20814227DBA188A86C7D
:10529000C0F38F2091FBF0F200FB1210A080A088D9
:1052A000E18888421ADB0120A06017E0A088304422
:1052B000A080A088E188884210DBA188A86CC0F398
:1052C0008F20814208DBA188A86CC0F38F2091FB5E
:1052D000F0F200FB1210A0800120A060A06801285D
:1052E00001D1A088E080E188A86CC0F38F208142C2
:1052F00001DB0020E08070BD8D9C000872785F6645
:1053000069666F20213D2052545F4E554C4C000081
:1053100010B5FAF79BFF044604480088401C00B211
:10532000024908802046FAF795FF10BDE0000020F2
:1053300010B5FAF78BFF04460C480088401E00B2F7
:105340000A4908800846B0F9000000280ADC00205D
:1053500008802046FAF77EFF0548006828B101F072
:10536000B3F902E02046FAF775FF10BDE000002017
:10537000E400002070B5054605B970BD00BFFAF71E
:1053800065FF064600F0A6FC48B1404940A000F089
:105390000DFD4FF407723D4947A0FFF71FF9304656
:1053A000FAF758FF00BF05F0030028B140F21E22B3
:1053B000364942A0FFF712F94D480068854203D3F1
:1053C0004C480068854205D340F21F222F494A48C5
:1053D000FFF704F900BF4948006818B1284647495B
:1053E0000968884700BF42480068854203D34148A6
:1053F0000068854202D300BF00BFBEE7A5F10C04E0
:1054000000BF00BF4FF0FF313D4801F0AFFA6088A8
:1054100018B12088B0F5F55F08D03AA000F0C6FCBE
:105420002388628821463EA000F0C0FC608828B92D
:1054300040F23E22154946A0FFF7D0F82088B0F58B
:10544000F55F05D040F23F22104944A0FFF7C6F8AF
:10545000002060804FF4F550208047480068844267
:1054600001D245480460224960680968611A401AFF
:1054700042490968081A414908602046FEF72EFF94
:105480001F4801F02BFA00BF77E700006693000881
:1054900046756E6374696F6E5B25735D207368611A
:1054A0006C6C206E6F742062652075736564206972
:1054B0006E204953520A000030000000282828724C
:1054C000745F75696E7433325F7429726D656D290E
:1054D0002026202852545F414C49474E5F53495A79
:1054E00045202D20312929203D3D2030000000009D
:1054F00024000020280000205C9F000820000020DD
:1055000044040020746F206672656520612062612A
:1055100064206461746120626C6F636B3A0A0000FE
:105520006D656D3A203078253038782C207573659C
:105530006420666C61673A2025642C206D61676980
:105540006320636F64653A203078253034780A0030
:105550006D656D2D3E757365640000006D656D2D84
:105560003E6D61676963203D3D20484541505F4D78
:1055700041474943000000002C0000203400002077
:1055800010B5FBF795FEFCF735FC00F0E3FA074990
:10559000074801F05BFE00F01FF900F0EFFA05A0EC
:1055A000FFF782F9FFF75EF910BD0000000001204F
:1055B000700D0020756172743100000070470000AA
:1055C00001480249086070470400FA050CED00E04C
:1055D00070B505462C1D3048006838B128462E4964
:1055E00009688847064606B970BD00BF2BA0E16B6D
:1055F00000F0DCFB2DA0216A00F0D8FB2FA0616A2F
:1056000000F0D4FB31A0A16A00F0D0FB33A0E16A26
:1056100000F0CCFB35A0216800F0C8FB37A0616822
:1056200000F0C4FB39A0A16800F0C0FB3BA0E1681A
:1056300000F0BCFB3DA0216900F0B8FB3FA0616910
:1056400000F0B4FB41A0A16900F0B0FB43A0E16908
:1056500000F0ACFB45A0216B00F0A8FB47A0616BFC
:1056600000F0A4FB49A0A16B00F0A0FB287800F09B
:10567000040048B102F070F80646314647A000F039
:1056800095FBFEF7D5FB02E04CA000F08FFBFEF788
:10569000CFFA00BFFEE70000080200207073723AE4
:1056A000203078253038780A000000007230303A17
:1056B000203078253038780A000000007230313A06
:1056C000203078253038780A000000007230323AF5
:1056D000203078253038780A000000007230333AE4
:1056E000203078253038780A000000007230343AD3
:1056F000203078253038780A000000007230353AC2
:10570000203078253038780A000000007230363AB0
:10571000203078253038780A000000007230373A9F
:10572000203078253038780A000000007230383A8E
:10573000203078253038780A000000007230393A7D
:10574000203078253038780A000000007231303A75
:10575000203078253038780A000000007231313A64
:10576000203078253038780A000000007231323A53
:10577000203078253038780A00000000206C723A1A
:10578000203078253038780A000000002070633A15
:10579000203078253038780A000000006861726493
:1057A000206661756C74206F6E2074687265616428
:1057B0003A2025730D0A0D0A00000000686172642A
:1057C000206661756C74206F6E2068616E646C6514
:1057D000720D0A0D0A00000008B500BF304880694C
:1057E00040F004002E4988610846806900F00400FA
:1057F000009000BF00BF00BF0846806940F008006D
:1058000088610846806900F00800009000BF00BF72
:1058100000BF0846806940F0100088610846806932
:1058200000F01000009000BF00BF00BF0846806974
:1058300040F0200088610846806900F02000009058
:1058400000BF00BF00BF0846806940F0400088618B
:105850000846806900F04000009000BF00BF00BF14
:105860000846806940F0800088610846806900F041
:105870008000009000BF00BF00BF0846806940F470
:10588000807088610846806900F48070009000BFD5
:1058900000BF0022034904A0FFF75AFB08BD000027
:1058A00000100240D49A000870696E002DE9FE4392
:1058B00005460E46F0B2012806D002285FD0032824
:1058C00079D004285AD15FE04FF0FF37EC6C2CB947
:1058D00040F28242574958A0FEF780FE2CE0286C27
:1058E000C168284688470746781C00B925E0FAF7C2
:1058F000ADFC8146A28821688F54A088401CA080FE
:10590000A188A86CC0F38F20814201DB0020A08019
:10591000A088E18888420CD1E088401CE08001200A
:10592000A060E188A86CC0F38F20814201DB0020D9
:10593000E0804846FAF78EFCD1E700BFE869E8B19D
:10594000FAF784FC8146A088E188884203DBA088BE
:10595000E188401A06E0E088A188411AA86CC0F3EB
:105960008F20401A80464846FAF774FCB8F1000FC1
:1059700003D041462846EA69904700BF56E02C6DA7
:105980002046FEF777FE51E02C6D002301AA694600
:10599000201DFFF715F801AA02A9201DFEF7D0FF70
:1059A00050B901202060286C022307692846DDE9F0
:1059B0000121B84702E008E000202060286A18B101
:1059C0002A6A28460099904730E03712A86CC0F345
:1059D0008F20B0B9EC6C2CB940F2E14215491BA004
:1059E000FEF7FCFDE86928B940F2E34211491CA02A
:1059F000FEF7F4FD39462846EA699047002020600A
:105A000013E0FAF723FC804639462846FFF726FCC8
:105A10002846FFF7CFFB07464046FAF71BFCE8692C
:105A200018B139462846EA69904700BF00BFBDE873
:105A3000FE8300002E9D000872785F6669666F2005
:105A4000213D2052545F4E554C4C000072785F64EB
:105A50006D6120213D2052545F4E554C4C0000009A
:105A600073657269616C2D3E706172656E742E7221
:105A7000785F696E64696361746520213D205254CA
:105A80005F4E554C4C0000002DE9F0470446884617
:105A900016461F462CB940F256420F490FA0FEF79A
:105AA0009DFD254600202875E8612862104868623F
:105AB0001048A8621048E8621048286310486863DC
:105AC0001048A863EF63B2B241462846FFF7BEFA1A
:105AD00081464846BDE8F087189D000873657269E5
